:1000000011C135C134C133C1ACC131C130C12FC1FF
:100010002EC12DC149C12BC12AC129C128C1FFFD53
:10002000FAF8F5F3F0EEEBE9E6E4E2DFDDDBD8D653
:10003000D4D2D0CDCBC9C7C5C3C1BFBDBBB9B7B57D
:10004000B3B2B0AEACAAA8A7A5A3A1A09E9C9B9951
:100050009896949391908E8D8B8A888785848281DF
:10006000807E7D7B7A79777675747271706F6D6C36
:100070006B6A68676665646362605F5E5D5C5B5A5D
:10008000595857565554535251504F4E4D4C4B4A58
:100090004948474746454443424140403F3E3D3C36
:1000A0003C3B3A39393837363635343333323131EF
:1000B000302F2E2E2D2D2C2B2B2A29292828272690
:1000C0002625252423232222212120201F1F1E1E16
:1000D0001D1D1C1C1B1B1A1A1A1919181817171783
:1000E00016161515151414141313131212121111D8
:1000F000111010100F0F0F0F0E0E0E0D0D0D0D0D18
:100100000C0C0C0C0B0B0B0B0B0A0A0A0A0A0A0943
:100110000909090909090908080808080808808365
:1001200086898C909396999C9FA2A5A8ABAEB1B3FB
:10013000B6B9BCBFC1C4C7C9CCCED1D3D5D8DADC1F
:10014000DEE0E2E4E6E8EAEBEDEFF0F1F3F4F5F6F9
:10015000F8F9FAFAFBFCFDFDFEFEFEFFFFFFFFFFD4
:10016000FFFFFEFEFEFDFDFCFBFAFAF9F8F6F5F4E2
:10017000F3F1F0EFEDEBEAE8E6E4E2E0DEDCDAD81A
:10018000D5D3D1CECCC9C7C4C1BFBCB9B6B3B1AE4B
:10019000ABA8A5A29F9C999693908C898683807D1D
:1001A0007A7774706D6A6764615E5B5855524F4D23
:1001B0004A4744413F3C393734322F2D2B282624DF
:1001C00022201E1C1A1816151311100F0D0C0B0AE5
:1001D00008070606050403030202020101010101EA
:1001E000010102020203030405060607080A0B0CBC
:1001F0000D0F1011131516181A1C1E202224262864
:100200002B2D2F323437393C3F4144474A4D4F5212
:1002100055585B5E6164676A6D7074777A7D9F0183
:10022000D202F20211241FBECFE5D1E0DEBFCDBF66
:1002300010E0A0E6B0E0E6EDF6E002C005900D9219
:10024000A238B107D9F710E0A2E8B0E001C01D92D2
:10025000AD39B107E1F712E0C4E2D2E003C0229762
:10026000FE0133D2CE31D107D1F72DD12AC2C8CE6B
:10027000CF93DF93C8EED3E06C2F84E890E0D5D124
:1002800068EE84E890E0D4D184E890E0D4D160E1D5
:1002900077E280E090E0D9D02A96C83883E1D80789
:1002A00059F7DF91CF9108951F920F920FB60F92D9
:1002B00011242F933F934F935F936F937F938F936B
:1002C0009F93AF93BF93EF93FF9384E890E0F6D1B1
:1002D00089BD8091820090918300009729F001965A
:1002E000909383008093820084E890E0ADD1FF91E9
:1002F000EF91BF91AF919F918F917F916F915F919E
:100300004F913F912F910F900FBE0F901F90189516
:1003100084E890E082D186B1836886B9789485E9D3
:1003200090E090939A0080939900E0919500F0916D
:1003300096000190F081E02D09949ADFFECF84E8C9
:1003400090E061C183B7887F83BF8AB58C7F81606D
:100350008ABD83B7877F83BF83B7887F826083BF6F
:1003600008951F920F920FB60F9211242F933F936F
:100370008F939F93AF93BF9380918C0090918D004A
:10038000A0918E00B0918F0030919400232F2A5FAE
:100390002D3728F02D570396A11DB11D03C00296DD
:1003A000A11DB11D2093940080938C0090938D002B
:1003B000A0938E00B0938F00809190009091910057
:1003C000A0919200B09193000196A11DB11D809360
:1003D000900090939100A0939200B0939300BF91EE
:1003E000AF919F918F913F912F910F900FBE0F90E2
:1003F0001F9018950F931F939FB7F894009190004A
:100400001091910020919200309193008FB508B621
:1004100002FE06C08F3F21F00F5F1F4F2F4F3F4F4F
:100420009FBF322F212F102F0027080F111D211DD4
:10043000311D43E0000F111F221F331F4A95D1F7D2
:10044000B801C9011F910F910895CF92DF92EF92E9
:10045000FF92CF93DF936B017C01CCDFEB010DC0EA
:10046000C9DF6C1B7D0B683E734038F081E0C81A11
:10047000D108E108F108C851DC4FC114D104E104EE
:10048000F10471F7DF91CF91FF90EF90DF90CF9063
:100490000895789480B7806880BF80B7806480BFFB
:1004A0008CB580648CBD8FEF8DBD80B7807F8460FC
:1004B00080BF89B7846089BF45DF86B1887F83604C
:1004C00086B9379A0895E5DF23DF37DFFECF0F9334
:1004D0001F93CF93DF938C01EB0108C0D801ED91FE
:1004E000FC910190F081E02DC8010995699161119D
:1004F000F5CFDF91CF911F910F910895EF92FF9269
:100500000F931F93CF93DF937C01EB018A01060FBA
:10051000171F09C06991D701ED91FC910190F081FD
:10052000E02DC7010995C017D107A1F7DF91CF9141
:100530001F910F91FF90EF90089508950895B99A33
:10054000C19A0895862F90E0880F991F8F7199277F
:1005500062956F70606122E095E054E0F89407C006
:10056000000000000000000000000000000087956F
:1005700010F0C19802C0C19A0000579510F4000015
:1005800000004CE14A95F1F70000000000009A9548
:1005900039F700002A9521F095E0862F52E0E7CF49
:1005A0007894089584E690E0909396008093950067
:1005B000089580E090E008958FEF9FEF08958FEF0A
:1005C0009FEF08950895DC0112968D919C911397E9
:1005D000DC01ED91FC910280F381E02D099581E031
:1005E00090E00895EBE9F0E08EE790E0918380835E
:1005F0008CE690E09093980080939700F0939A0097
:10060000E09399000895FC011082118212821482F5
:100610001382168215821782089581E087BB93E8C2
:100620009ABD83BF80E189BF0895FC01618308956D
:10063000FC0162830895FC01818113828483168208
:10064000158281E080830895DC018C91882369F113
:1006500012962C91129713968D919C911497820F5C
:10066000911D14969C938E931397E92FFF27E25EBA
:10067000FF4F24911596ED91FC911697E20FF11D15
:100680001696FC93EE93159734E0F695E7953A9518
:10069000E1F7FF27E25EFE4FE4911796EC93179780
:1006A00081309F4F50F01C92089517968C911797A8
:1006B000882319F0815017968C930895FC01878147
:1006C0000895F89406C0EE0FFF1F0590F491E02DF9
:0606D0000994F894FFCF2D
:1006D600000000009F02A20200000000E302670281
:1006E6007E02D902DF02DC02E202000000009D0267
:0206F6009E0262
:00000001FF
